:100000002DC100000C94DF1D0C940C1E0C94090CE7
:100010004DC100000C94610C49C1000047C10000B3
:1000200045C1000043C1000041C100003FC10000C4
:100030003DC100003BC1000039C1000037C10000D4
:100040000C94B91E33C100000C94361C2FC1000063
:100050002DC100002BC1000029C1000027C10000F4
:100060000C94412123C10000B6217B217B217B21FF
:100070007B217B217B217B21E5217B217B217B2136
:100080007B217B217B217B21E5217B217B217B2126
:100090007B217B217B217B21EC217B217B217B210F
:1000A0007B217B217B217B2101227B217B217B21E9
:1000B0007B217B217B217B21EC217B217B217B21EF
:1000C0007B217B217B217B211F227B217B217B21AB
:1000D0007B217B217B217B2124227B217B217B2196
:1000E0007B217B217B217B2173217B217B217B2138
:1000F0007B217B217B217B21B8217B217B217B21E3
:100100007B217B217B217B2167217B217B217B2123
:100110007B217B217B217B21BF217B217B217B21BB
:100120007B217B217B217B21CC217B217B217B219E
:100130007B217B217B217B21CC217B217B217B218E
:100140007B217B217B217B21CC217B217B217B217E
:100150007B217B217B217B21CC217B217B217B216E
:100160007B217B217B217B21D2217B217B217B2158
:100170007B217B217B217B21B3217B217B217B2167
:100180007B217B217B217B21D2217B217B217B2138
:100190007B217B217B217B21B3217B217B217B2147
:1001A0007B217B217B217B2106227B217B217B21E3
:1001B0007B217B217B217B218C217B217B217B214E
:1001C0007B217B217B217B218C217B217B217B213E
:1001D0007B217B217B217B21A1217B217B217B2119
:1001E0007B217B217B217B21BA217B217B217B21F0
:1001F0007B217B217B217B21BA2100000000240090
:1002000027002A0000000000250028002B00000025
:10021000000023002600290004040404040404044C
:1002200002020202020203030303030301020408A1
:100230001020408001020408102001020408102050
:100240000000000700020100000304060000000097
:1002500000000000FC0A6316691D6C2011241FBEFB
:10026000CFEFD8E0DEBFCDBF12E0A0E0B1E0E2EF1B
:10027000F8E402C005900D92AE35B107D9F716E04B
:10028000AEE5B2E001C01D92AC3AB107E1F712E071
:10029000CCE5D2E004C02297FE010E94BE22C43504
:1002A000D107C9F70E94301C0C947724A9CEEF9295
:1002B000FF920F93DF93CF93CDB7DEB760970FB662
:1002C000F894DEBF0FBECDBFA82F002309F461C094
:1002D0007E010894E11CF11C88E0F70111928A95D7
:1002E000E9F729833A834B835C836D837E83AF83F5
:1002F000988780E2801BE82FFF27E7FDF0954D816E
:100300005E816F817885181684F01D861E861F8693
:10031000188A882799278E1B9F0B04C076956795AE
:10032000579547958A95D2F728C0202F332727FD68
:100330003095DB01CA01022E04C0B695A7959795AA
:1003400087950A94D2F78D879E87AF87B88B04C0B4
:10035000440F551F661F771FEA95D2F789819A814E
:10036000AB81BC8104C0B695A795979587952A95D2
:10037000D2F7482B592B6A2B7B2B49875A876B87DF
:100380007C8729853A854B855C856D857E85AF8523
:1003900098898A2F60960FB6F894DEBF0FBECDBF46
:1003A000CF91DF910F91FF90EF900895EF92FF9220
:1003B0000F93DF93CF93CDB7DEB760970FB6F89466
:1003C000DEBF0FBECDBFA82F002309F461C07E01A0
:1003D0000894E11CF11C88E0F70111928A95E9F775
:1003E00029833A834B835C836D837E83AF839887B5
:1003F00080E2801BE82FFF27E7FDF09549815A81B5
:100400006B817C81181684F019861A861B861C86DF
:10041000882799278E1B9F0B04C0440F551F661F0A
:10042000771F8A95D2F728C0202F332727FD3095D4
:10043000DB01CA01022E04C0880F991FAA1FBB1F2F
:100440000A94D2F789879A87AB87BC8704C07695D0
:10045000679557954795EA95D2F78D819E81AF8133
:10046000B88504C0880F991FAA1FBB1F2A95D2F711
:10047000482B592B6A2B7B2B4D875E876F87788B98
:1004800029853A854B855C856D857E85AF85988904
:100490008A2F60960FB6F894DEBF0FBECDBFCF9106
:1004A000DF910F91FF90EF900895A0E0B0E0EBE5B1
:1004B000F2E00C948522DC012B01FA019C91923030
:1004C00008F439C1EB018881823008F433C19430DB
:1004D00069F4843009F02FC111969C91119789819C
:1004E000981709F428C1AAE0B1E025C1843009F4C5
:1004F00021C18230A9F4923009F01DC19A01AD01E9
:1005000088E0EA010990AE01E90109929E0181505B
:10051000C1F7E201898111969C918923818308C1E9
:10052000923009F407C112962D903C901397EB017D
:100530008A819B811496AD90BD90CD90DC901797E9
:10054000EC80FD800E811F819101281B390BB901C0
:1005500037FF04C066277727621B730B6032710573
:100560000CF061C0121613066CF537014801062E17
:1005700004C096948794779467940A94D2F721E004
:1005800030E040E050E004C0220F331F441F551FED
:100590006A95D2F721503040404050402E213F21F3
:1005A00040235123211531054105510521F021E05A
:1005B00030E040E050E079018A01E628F728082978
:1005C00019293CC0232BD1F1260E371E35014601D7
:1005D000062E04C096948794779467940A94D2F771
:1005E00021E030E040E050E004C0220F331F441F00
:1005F000551F6A95D2F721503040404050402A2183
:100600003B214C215D21211531054105510521F08A
:1006100021E030E040E050E059016A01A628B72807
:10062000C828D9280BC0821593052CF01C01AA24D8
:10063000BB24650103C0EE24FF24870111969C9121
:10064000D20111968C91981709F445C0992339F07D
:10065000A80197012A193B094C095D0906C0A601AA
:1006600095012E193F09400B510B57FD08C011820F
:100670003382228224833583468357831DC081E0E1
:1006800081833382228288279927DC01821B930B86
:10069000A40BB50B84839583A683B7830DC0220F6B
:1006A000331F441F551F248335834683578382811C
:1006B0009381019793838283248135814681578179
:1006C000DA01C9010197A109B1098F5F9F4FAF4FAF
:1006D000BF4328F30BC0918333822282EA0CFB1CB8
:1006E0000C1D1D1DE482F5820683178383E0808341
:1006F000248135814681578157FF1AC0C901AA2735
:1007000097FDA095BA2F81709070A070B07056952B
:10071000479537952795822B932BA42BB52B848354
:100720009583A683B7838281938101969383828385
:10073000DF0101C0D201CD01CDB7DEB7E2E10C94FB
:10074000A122A0E2B0E0E7EAF3E00C9491226983F1
:100750007A838B839C832D833E834F835887E9E084
:10076000EE2EF12CEC0EFD1ECE010196B70139D410
:100770008E010F5E1F4FCE010596B80132D48A89D3
:1007800091E089278A8BC701B801AE01475E5F4FB0
:100790008CDE52D3A096E6E00C94AD22A0E2B0E04D
:1007A000E4EDF3E00C94912269837A838B839C833C
:1007B0002D833E834F835887F9E0EF2EF12CEC0E0A
:1007C000FD1ECE010196B7010CD48E010F5E1F4FA6
:1007D000CE010596B80105D4C701B801AE01475E48
:1007E0005F4F63DE29D3A096E6E00C94AD22A0E231
:1007F000B0E0EDEFF3E00C94852269837A838B837C
:100800009C832D833E834F835887CE010196BE0182
:10081000675F7F4FE6D3CE010596BE016F5E7F4FC7
:10082000E0D39985923088F089898230C8F094307D
:1008300019F4823051F404C0843029F4923081F4E8
:100840008AE091E0C6C0923049F420E09A858A8916
:10085000981321E02A87CE010996BBC0823049F463
:1008600020E09A858A89981321E02A8BCE0141964F
:10087000B0C02D843E844F8458886D887E888F88D0
:10088000988CEE24FF248701AA24BB24650140E054
:1008900050E060E070E0E0E0F0E0C1018170907055
:1008A000892BE9F0E60CF71C081D191D9A01AB0114
:1008B0002A0D3B1D4C1D5D1D80E090E0A0E0B0E0E6
:1008C000E614F7040805190520F481E090E0A0E0A3
:1008D000B0E0BA01A901480F591F6A1F7B1FAA0C7B
:1008E000BB1CCC1CDD1C97FE08C081E090E0A0E0A2
:1008F000B0E0A82AB92ACA2ADB2A3196E032F105EB
:1009000049F0660C771C881C991C569447943794C0
:100910002794C3CFFA85EA892B893C898B859C85EE
:10092000280F391F2E5F3F4F17C0CA01817090708A
:10093000892B61F016950795F794E79480E090E095
:10094000A0E0B0E8E82AF92A0A2B1B2B76956795D8
:10095000579547952F5F3F4F77FDE7CF0CC0440F6A
:10096000551F661F771F17FD4160EE0CFF1C001F0F
:10097000111F21503040403090E0590790E0690746
:1009800090E4790760F32B8F3C8FDB01CA018F77EE
:100990009070A070B07080349105A105B10561F42C
:1009A00047FD0AC0E114F1040105110529F0405C7E
:1009B0005F4F6F4F7F4F40781A8EFE1711F081E026
:1009C0008A8F4D8F5E8F6F8F78A383E0898FCE01E2
:1009D000499632D2A096E2E10C94A122A8E1B0E0BF
:1009E000E4EFF4E00C948D2269837A838B839C83FB
:1009F0002D833E834F835887B9E0EB2EF12CEC0E0C
:100A0000FD1ECE010196B701ECD28E010F5E1F4F85
:100A1000CE010596B801E5D22985223008F47EC0C2
:100A20003989323010F4B8017CC08A859A898927C7
:100A30008A87243011F0223031F4231709F06EC078
:100A40006AE071E06EC0343039F41D861E861F8660
:100A5000188A1C861B8604C0323021F484E0898702
:100A6000B7015FC02B853C858B899C89281B390B7E
:100A70003C872B87ED84FE840F851889AD88BE885E
:100A8000CF88D88CEA14FB040C051D0540F4EE0C4D
:100A9000FF1C001F111F215030403C872B8720E096
:100AA00030E040E050E080E090E0A0E0B0E460E0C2
:100AB00070E0EA14FB040C051D0540F0282B392BCF
:100AC0004A2B5B2BEA18FB080C091D09B695A79564
:100AD00097958795EE0CFF1C001F111F6F5F7F4FCE
:100AE0006F31710531F7DA01C9018F779070A0700D
:100AF000B07080349105A105B10561F427FD0AC0ED
:100B0000E114F1040105110529F0205C3F4F4F4F1E
:100B10005F4F20782D873E874F87588BBE01675FD8
:100B20007F4FCB0189D16896EAE00C94A922A8E115
:100B3000B0E0EDE9F5E00C94912269837A838B8330
:100B40009C832D833E834F83588789E0E82EF12CC8
:100B5000EC0EFD1ECE010196B70143D28E010F5E51
:100B60001F4FCE010596B8013CD28985823038F0FE
:100B70008989823020F0C701B801ABD201C081E081
:100B80006896E6E00C94AD22A8E1B0E0EAECF5E06E
:100B90000C94912269837A838B839C832D833E837B
:100BA0004F83588789E0E82EF12CEC0EFD1ECE0114
:100BB0000196B70116D28E010F5E1F4FCE0105962A
:100BC000B8010FD28985823038F08989823020F0CF
:100BD000C701B8017ED201C08FEF6896E6E00C94A1
:100BE000AD22A8E1B0E0E7EFF5E00C949122698333
:100BF0007A838B839C832D833E834F83588789E040
:100C0000E82EF12CEC0EFD1ECE010196B701E9D1C4
:100C10008E010F5E1F4FCE010596B801E2D1898586
:100C2000823038F08989823020F0C701B80151D272
:100C300001C081E06896E6E00C94AD22A8E0B0E047
:100C4000E4E2F6E00C948E229B01AC0183E0898300
:100C5000DA01C9018827B7FD83959927AA27BB2701
:100C6000B82E211531054105510519F482E089831B
:100C700039C08823A9F0203080E0380780E0480799
:100C800080E8580729F460E070E080E09FEC2EC017
:100C9000EE24FF248701E21AF30A040B150B02C0AD
:100CA00079018A018EE1C82ED12CDC82CB82ED82C3
:100CB000FE820F831887C801B7016FD001971816FD
:100CC000190684F4082E04C0EE0CFF1C001F111F2F
:100CD0000A94D2F7ED82FE820F831887C81AD90AC8
:100CE000DC82CB82BA82CE010196A6D02896E9E0BA
:100CF0000C94AA22ACE0B0E0E0E8F6E00C94952277
:100D000069837A838B839C83CE010196BE016B5FDE
:100D10007F4F67D18D81823061F1823050F1843014
:100D200021F48E81882351F12EC02F81388537FD23
:100D300020C06E812F3131051CF06623F9F023C0ED
:100D40008EE190E0821B930B29853A854B855C856B
:100D500004C056954795379527958A95D2F766230F
:100D6000B1F050954095309521953F4F4F4F5F4FD3
:100D70000EC020E030E040E050E009C02FEF3FEF30
:100D80004FEF5FE704C020E030E040E050E8B901F9
:100D9000CA012C96E2E00C94B122EF92FF920F93DD
:100DA0001F937B018C0180E0E81680E0F80681E06B
:100DB000080780E0180788F48FEFE816F1040105B2
:100DC000110531F028F088E090E0A0E0B0E017C015
:100DD00080E090E0A0E0B0E012C080E0E81680E0A3
:100DE000F80680E0080781E0180728F088E190E025
:100DF000A0E0B0E004C080E190E0A0E0B0E020E23C
:100E000030E040E050E0281B390B4A0B5B0B04C07C
:100E100016950795F794E7948A95D2F7F701EE5E59
:100E2000FE4F8081281B310941095109C9011F91D9
:100E30000F91FF90EF900895DF92EF92FF920F9342
:100E40001F93FC01E480F58006811781D1808081A9
:100E5000823048F480E090E0A0E1B0E0E82AF92A8E
:100E60000A2B1B2BA5C0843009F49FC0823021F4CB
:100E7000EE24FF24870105C0E114F10401051105EA
:100E800019F4E0E0F0E096C0628173819FEF623870
:100E900079070CF05BC022E83FEF261B370B2A31A5
:100EA00031052CF020E030E040E050E02AC0B801ED
:100EB000A701022E04C076956795579547950A9429
:100EC000D2F781E090E0A0E0B0E004C0880F991F65
:100ED000AA1FBB1F2A95D2F70197A109B1098E213C
:100EE0009F21A023B1230097A105B10521F081E046
:100EF00090E0A0E0B0E09A01AB01282B392B4A2BFF
:100F00005B2BDA01C9018F779070A070B0708034CC
:100F10009105A105B10539F427FF09C0205C3F4FB9
:100F20004F4F5F4F04C0215C3F4F4F4F5F4FE0E09A
:100F3000F0E02030A0E03A07A0E04A07A0E45A071A
:100F400010F0E1E0F0E079018A0127C06038710516
:100F500064F5FB01E158FF4FD801C7018F7790700E
:100F6000A070B07080349105A105B10539F4E7FE99
:100F70000DC080E490E0A0E0B0E004C08FE390E01A
:100F8000A0E0B0E0E80EF91E0A1F1B1F17FF05C006
:100F900016950795F794E794319687E0169507958F
:100FA000F794E7948A95D1F705C0EE24FF248701D2
:100FB000EFEFF0E06E2F679566276795902F9F778C
:100FC000D794DD24D7948E2F8695492F462B582F02
:100FD0005D29B701CA011F910F91FF90EF90DF903B
:100FE0000895FC01DB01408151812281622F6F77DE
:100FF00070E0221F2227221F9381892F880F822BC6
:10100000282F30E0991F9927991F11969C931197CB
:1010100021153105A9F5411551056105710511F439
:1010200082E037C082E89FEF13969C938E931297CD
:101030009A01AB0167E0220F331F441F551F6A95C9
:10104000D1F783E08C930DC0220F331F441F551F2F
:1010500012968D919C911397019713969C938E9362
:101060001297203080E0380780E0480780E4580776
:1010700058F314962D933D934D935C9317970895D1
:101080002F3F310579F4411551056105710519F4BA
:1010900084E08C93089564FF03C081E08C9312C0B8
:1010A0001C9210C02F57304013963C932E931297EA
:1010B00083E08C9387E0440F551F661F771F8A9546
:1010C000D1F7706414964D935D936D937C9317974D
:1010D00008951F93DC01FB019C91923008F447C0F6
:1010E0008081823008F443C0943051F411961C91F1
:1010F000843099F58181682F70E0611B71093FC0D0
:10110000843021F0923031F48230B9F1818188232A
:1011100089F12DC011961C9111978230F1F08181D7
:101120001817D9F412962D913C91139782819381CF
:101130008217930794F028173907BCF014968D9105
:101140009D910D90BC91A02D2481358146815781C0
:10115000281739074A075B0718F4112341F00AC022
:1011600082179307A407B50740F4112319F061E033
:1011700070E005C06FEF7FEF02C060E070E0CB0170
:101180001F9108954F925F926F927F928F929F92DC
:10119000AF92BF92CF92DF92EF92FF920F931F9385
:1011A000DF93CF93CDB7DEB72E970FB6F894DEBF9F
:1011B0000FBECDBF8C01FC014080518066807780DE
:1011C00084819581841995094C01AA2497FCA094E7
:1011D000BA2CC484D584F60122813381442737FD9B
:1011E0004095542FC501B4010E942922672F782F02
:1011F000892F992787FD9A956030F0E87F07F0E006
:101200008F07F0E09F070CF466C18FEF9FE79A838A
:10121000898389819A819C01442737FD4095542F09
:10122000F80180859185AA2797FDA095BA2F280FF0
:10123000391F4A1F5B1F2030F0E83F07F0E04F07DF
:10124000F0E05F070CF439C18FEF9FE79E878D8731
:101250008D859E85F80191878087F60126813781EB
:10126000281739071CF4F80131872087F801808599
:101270009185F601E084F1848E159F050CF419C167
:101280007C01F60120813181442737FD4095542FA0
:10129000C501B4010E942922672F782F892F992731
:1012A00087FD9A956030F0E87F07F0E08F07F0E067
:1012B0009F070CF4F1C08FEF9FE79C838B8397010E
:1012C000442737FD4095542F8B819C81AA2797FD99
:1012D000A095BA2F280F391F4A1F5B1F203080E8C6
:1012E000380780E0480780E058070CF4C8C08FEF4B
:1012F0009FE79E838D83641875084301AA2497FC99
:10130000A094BA2CF60124813581442737FD4095FD
:10131000542FC501B4010E942922672F782F892FED
:10132000992787FD9A956030F0E87F07F0E08F07F6
:10133000F0E09F070CF495C08FEF9FE798878F83AD
:101340008F8198859C01442737FD4095542F8D81CE
:101350009E81AA2797FDA095BA2F280F391F4A1FF3
:101360005B1F203080E8380780E0480780E058079E
:101370000CF469C08FEF9FE79A87898789859A85E2
:10138000F80193838283F60124813581442737FD58
:101390004095542FC501B4010E942922672F782F50
:1013A000892F992787FD9A956030F0E87F07F0E054
:1013B0008F07F0E09F07CCF18FEF9FE79C878B872B
:1013C0008B859C85F8019387828722813381F60182
:1013D000868197818217930724F1C901F601208540
:1013E0003185821793071CF4F80133832283F801B7
:1013F000578246822E960FB6F894DEBF0FBECDBF41
:10140000CF91DF911F910F91FF90EF90DF90CF90E0
:10141000BF90AF909F908F907F906F905F904F9014
:101420000895F80193838283D9CF603020E8720752
:101430002FEF82072FEF92070CF06CC080E090E84E
:101440009C878B87BDCF2030E0E83E07EFEF4E074B
:10145000EFEF5E070CF05BC080E090E89A87898729
:101460008DCF603020E872072FEF82072FEF9207B1
:101470000CF04AC080E090E898878F8361CF2030DD
:10148000E0E83E07EFEF4E07EFEF5E07D4F580E0B0
:1014900090E89E838D832FCF603020E872072FEF76
:1014A00082072FEF920754F580E090E89C838B83AE
:1014B00006CFF801F186E086E4CE203080E83807D8
:1014C0008FEF48078FEF5807B4F480E090E8F801F9
:1014D00091878087CBCE603020E872072FEF82079C
:1014E0002FEF92072CF480E090E89A83898391CEC5
:1014F0007A8369838ECE3E872D87AACE7C836B83C9
:10150000DECE3E832D83F7CE78876F8319CF3A875F
:10151000298734CF7C876B8753CFDF93CF9300D05D
:10152000CDB7DEB7FC0182819381268137812817F0
:1015300039070CF44EC09C01808591852817390726
:101540000CF444C0C90120813181821793079CF4B7
:1015500084819581A901481B590B518340832281C5
:1015600033814217530714F4318320830F900F9077
:10157000CF91DF91089528173907C4F784819581A9
:10158000AC01662757FD6095762FC901AA2797FD04
:10159000A095BA2F480F591F6A1F7B1F403080E863
:1015A000580780E0680780E07807B4F08FEF9FE786
:1015B0009A83898389819A8191838083228133816F
:1015C000281739079CF631832083D0CF93838283F9
:1015D000BACF33832283B0CF403080E858078FEFF3
:1015E00068078FEF78072CF480E090E89183808380
:1015F000BDCF5A834983DECF84E09CE060E07CE08D
:101600000E94DF2390933F0380933E0381E392E0A7
:101610009093600280935F0287E292E090936A0267
:10162000809369028DE192E0909378028093770233
:101630008BE392E090937A028093790290939402E4
:101640008093930285E492E09093AE028093AD0282
:10165000EBECF2E081E090E01082118212821382C2
:1016600015821482168217821086118612863F9682
:1016700001972FEF8F3F920779F74FEF50E050938C
:1016800041034093400386E294E3909343038093A5
:1016900042031092EF021092EE021092F1021092A9
:1016A000F0021092F3021092F2029093F5028093EE
:1016B000F4022AED3BEC3093F7022093F6021092ED
:1016C000F9021092F8021092FB021092FA021092A4
:1016D000FD021092FC029093FF028093FE02309371
:1016E00001032093000380E090E4909345038093EE
:1016F000440362E073E08CEC91E0909303038093E9
:10170000020329E130E030930503209304038CE4C5
:1017100090E0909307038093060380EC9FE39093FF
:1017200009038093080380E490EC90930B0380936B
:101730000A0310920D0310920C0310920F031092E3
:101740000E031092110310921003109217031092BF
:1017500016037093190360931803109215031092E7
:101760001403109213031092120310921B03109291
:101770001A0310921D0310921C0310921F03109263
:101780001E03109225031092240370932703609385
:101790002603109223031092220310922103109229
:1017A0002003109229031092280310922B03109209
:1017B0002A0330932D0320932C0350932F0340933F
:1017C0002E0381E09FEF90933103809330031092BA
:1017D0003303109232031092350310923403309386
:1017E0003703209336035093390340933803909383
:1017F0003B0380933A0310923D0310923C030895FB
:101800008FEE95E00C94201D682F8FEE95E00C94E0
:10181000511D1F920F920FB60F9211241F932F93F9
:101820003F934F935F936F937F938F939F93AF9368
:10183000BF93EF93FF938CE00E942920182F8BE039
:101840000E9429209091E002981739F18091DA02E4
:101850009091DB02A091DC02B091DD020197A10919
:10186000B1098093DA029093DB02A093DC02B0937B
:10187000DD021093E002FF91EF91BF91AF919F9134
:101880008F917F916F915F914F913F912F911F9118
:101890000F900FBE0F901F9018958091DA029091D3
:1018A000DB02A091DC02B091DD020196A11DB11D09
:1018B0008093DA029093DB02A093DC02B093DD0206
:1018C000D8CF1F920F920FB60F9211241F932F9310
:1018D0003F934F935F936F937F938F939F93AF93B8
:1018E000BF93EF93FF9385E00E942920182F84E097
:1018F0000E9429209091D102981739F18091CB0252
:101900009091CC02A091CD02B091CE020197A10995
:10191000B1098093CB029093CC02A093CD02B093F7
:10192000CE021093D102FF91EF91BF91AF919F91A1
:101930008F917F916F915F914F913F912F911F9167
:101940000F900FBE0F901F9018958091CB02909131
:10195000CC02A091CD02B091CE020196A11DB11D85
:101960008093CB029093CC02A093CD02B093CE0291
:10197000D8CF0E94011FE0E0F0E02091EA02309110
:10198000EB024091EC025091ED022C503E4F4F4F34
:101990005F4F261737074807590710F4E1E0F0E0DA
:1019A000CF0108956F927F928F929F92AF92BF92D4
:1019B000CF92DF92EF92FF920F931F93CF93DF931B
:1019C000EC018FEF8093E9020E94011F6093EA020D
:1019D0007093EB028093EC029093ED0282E0CF359E
:1019E000D807C1F082E0C936D80709F462C0C757EA
:1019F000D24009F424C1DF91CF911F910F91FF9044
:101A0000EF90DF90CF90BF90AF909F908F907F909E
:101A10006F900895EA80FB800C811D81C801B70199
:101A200020E030E040E85FEBDCD887FDE4CFC80180
:101A3000B70120E030E040E85FE3A6D81816DCF2FA
:101A4000A0906502B0906602C0906702D0906802D4
:101A5000C601B50120E030E040E85FEBC2D887FD69
:101A6000CACFC601B50120E030E040E85FE38CD882
:101A700018160CF4C0CFC801B70120E030E040E8F0
:101A800053E40E94F70336D970932B0360932A0323
:101A9000C601B50120E030E040E853E40E94F703BE
:101AA00029D9709335036093340381E08093E90270
:101AB000A2CFC757D24009F4C2C0E0906B02F090A9
:101AC0006C0200916D0210916E02C801B70120E016
:101AD00030E040E05FEB85D887FD8DCFC801B701CE
:101AE00020E030E040E05FE34FD818160CF483CFDD
:101AF000A0906F02B0907002C0907102D0907202FC
:101B0000C601B50120E030E040E05FEB6AD887FD18
:101B100072CFC601B50120E030E040E05FE334D889
:101B200018160CF468CF6090730270907402809065
:101B3000750290907602C401B30120E030E040E0ED
:101B400050E04FD887FD57CFC401B30120E030E00B
:101B500040E251E419D818160CF44DCFC401B3017A
:101B600020E030E040E050E00E949705882371F4C7
:101B700080E090E0A0E2B1E480937302909374025D
:101B8000A0937502B09376023C014D01C801B701E4
:101B900020E038E940ED56E40E94F70320E030E011
:101BA00040E85BE30E94F70320E030E040E853E4C4
:101BB0000E94F7039FD87093F1026093F002C60170
:101BC000B50120E038E940ED56E40E94F70320E03B
:101BD00030E040E85BE30E94F70320E030E040E8BB
:101BE00053E40E94F70386D87093FB026093FA02D5
:101BF000C401B30120E038E940ED56E40E94F70348
:101C000020E030E040E85BE30E94F70320E030E0B2
:101C100048E452E40E94EE0420E030E040E853E45F
:101C20000E94F70367D87093FD026093FC027093E3
:101C3000F3026093F20282E08093E902DCCE8BE74C
:101C400092E00E94E91B5B016C0185EA92E00E9430
:101C5000E91B28EB3EE145E85EE30E94F7037B01C8
:101C60008C0120E030E040E05FEB0E94F7039B0135
:101C7000AC01C601B5010E94CE0360936B02709364
:101C80006C0280936D0290936E02C801B70120E050
:101C900030E040E05FE30E94F7039B01AC01C60126
:101CA000B5010E94CE0360936F027093700280931F
:101CB00071029093720280E090E0A0E2B1E4809320
:101CC000730290937402A0937502B0937602F5CEDE
:101CD000FF920F931F93F82E05E316E0C80160E70B
:101CE00070E00E946A20C80161E070E00E949720C5
:101CF000C8016F2D0E946D20C8010E9499201F917C
:101D00000F91FF900895DF92EF92FF920F931F9330
:101D100030DEDD24892B11F4DD24D3948091E90297
:101D20008F3F09F440C0E090C702F090C8020091D4
:101D3000C9021091CA02C801B7012AE939E941E490
:101D400051E40E94C405181614F484E0D82AC8018E
:101D5000B70123E333E34BE451E40E94C4051816B2
:101D600014F488E0D82AC801B70123E333E343E53C
:101D700051E40E94C405181614F480E1D82AC80161
:101D8000B7012AE939E949E551E40E94C40518166A
:101D900014F480E2D82A8D2D9BDF1F910F91FF90C4
:101DA000EF90DF90089582E0D82ABDCFFF920F9385
:101DB0001F93DF93CF9300D0CDB7DEB7782FF62EE9
:101DC0008A01FA012081318180913C0390913D0389
:101DD00082179307C4F0872F60E00E94EF1FF8017D
:101DE00060817181709561957F4F7A8369838F2DB2
:101DF00070E00E945B1E0F900F90CF91DF911F91BA
:101E00000F91FF900895872F61E00E94EF1FF80166
:101E100060818F2D70E00E945B1E0F900F90CF911C
:101E2000DF911F910F91FF9008950F931F938FEEF5
:101E300095E040E051EE60E070E00E94971C84E085
:101E400060E00E949A1F85E060E00E949A1F8BE08C
:101E500060E00E949A1F8CE060E00E949A1F89E077
:101E600061E00E949A1F8AE061E00E949A1F86E06A
:101E700061E00E949A1F87E061E00E949A1F8DE056
:101E800061E00E949A1F80E380936D0088E1809357
:101E90006B00E8E6F0E0808185608083E1E8F0E0B7
:101EA0008081887F8260808305E316E0C8010E94FC
:101EB000A820C80160E770E00E946A20C80163E0C2
:101EC00070E00E949720C80160E070E00E949720B7
:101ED000C8010E9499208FE3FBDE60E273E080E09E
:101EE00090E00E94361F80E0F3DE6CE271E080E05B
:101EF00090E00E94361F83E080935E0222ED3CE07A
:101F000030935B0320935A038FE592E09093630331
:101F100080936203309359032093580389E692E03B
:101F2000909361038093600330935D0320935C037F
:101F300087E792E090936503809364031F910F916C
:101F40000895AF92BF92CF92DF92EF92FF920F93DC
:101F50001F93DF93CF93CDB7DEB728970FB6F894D2
:101F6000DEBF0FBECDBF809153039091540348DC78
:101F70008F3F79F190916805E92FF0E020916A0494
:101F800030916B042C5F3F4FE217F30709F462C0F6
:101F90009F3F09F409C3E859FB4F8083892F8F5F66
:101FA0008093680520916A0430916B04843009F0B5
:101FB00050C48091680481508E3F08F458C38091CA
:101FC0006904843008F053C32F3F310511F008F045
:101FD0004EC30E94011F20914F0330915003409146
:101FE000510350915203261737074807590708F441
:101FF000A1C10E94011F20914B0330914C034091DD
:102000004D0350914E03261737074807590708F428
:1020100092C00E94011F20914703309148034091D4
:10202000490350914A03261737074807590708F410
:1020300060C028960FB6F894DEBF0FBECDBFCF911B
:10204000DF911F910F91FF90EF90DF90CF90BF90A5
:10205000AF9008958093680481E0809368059F01A4
:1020600081E090E08217930709F0B3CF8091680474
:10207000882309F444C38F3F09F0ABCF85E593E093
:1020800068E673E0A8D5182F60913E0370913F0376
:102090008FEF90E00E942A2460913E0370913F03ED
:1020A00080E090E00E942A2460913E0370913F03FB
:1020B000812FAADB60913E0370913F0380E0A4DB97
:1020C000E12EFF24E114F10409F483CF00E010E0D5
:1020D000F801E859FC4F60913E0370913F03808105
:1020E00090E00E942A240F5F1F4F0E151F0580F3FA
:1020F00070CF3FDC892B09F05FC28091470390913C
:102100004803A0914903B0914A038C509E4FAF4FB2
:10211000BF4F8093470390934803A0934903B09324
:102120004A036091460381E06827609346038DE08F
:102130000E94EF1F7ECF2C593F4F4F4F5F4F209390
:102140004B0330934C0340934D0350934E036091E7
:10215000CB027091CC028091CD029091CE020E9470
:102160001E062DE037E14DE158E30E94F70360932E
:10217000AF027093B0028093B1029093B20260916B
:10218000DA027091DB028091DC029091DD020E9404
:102190001E062DE037E14DE158E30E94F7036093FE
:1021A000B3027093B4028093B5029093B60260912B
:1021B000CF027091D002882777FD8095982F0E94DA
:1021C0001E062DE037E14DE158E30E94F7036093CE
:1021D000B7027093B8028093B9029093BA026091EB
:1021E000DE027091DF02882777FD8095982F0E948C
:1021F0001E062DE037E14DE158E30E94F70360939E
:10220000BB027093BC028093BD029093BE026091AA
:10221000280370912903882777FD8095982F0E94C5
:102220001E0620E030E040E85BE30E94F703609385
:10223000BF027093C0028093C1029093C20260916A
:10224000320370913303882777FD8095982F0E9481
:102250001E0620E030E040E85BE30E94F703609355
:10226000C3027093C4028093C5029093C60280E0BB
:102270000E94391EAA2797FDA095BA2FBC01CD0157
:102280000E941E0620EE39EB47E75CE30E94F7034D
:1022900020E030E040E050E00E94CE036093C702AF
:1022A0007093C8028093C9029093CA0210915E0293
:1022B000E091AD02F091AE020190F081E02D8DEA47
:1022C00092E068E673E00995082F60913E037091F3
:1022D0003F0380E090E00E942A2460913E037091C9
:1022E0003F03812F90E00E942A2460913E03709169
:1022F0003F03802F89DA60913E0370913F0380E0B5
:1023000083DAE02EFF24E114F10491F000E010E004
:10231000F801E859FC4F60913E0370913F038081C2
:1023200090E00E942A240F5F1F4F0E151F0580F3B7
:10233000EADC6FCE2C5E3F4F4F4F5F4F20934F0331
:102340003093500340935103509352030E94011F56
:102350005B016C01E090CB02F090CC020091CD02C9
:102360001091CE028091D2029091D302A091D4021A
:10237000B091D502A6019501281B390B4A0B5B0BC6
:1023800068EE73E080E090E00E9448228091D602DF
:102390009091D702A091D802B091D902E81AF90A17
:1023A0000A0B1B0BCA01B901A80197010E9429223F
:1023B0007093D0026093CF02A092D202B092D30267
:1023C000C092D402D092D5028091CB029091CC02DF
:1023D000A091CD02B091CE028093D6029093D70205
:1023E000A093D802B093D9020E94011F5B016C0137
:1023F000E090DA02F090DB020091DC021091DD0245
:102400008091E1029091E202A091E302B091E40296
:10241000A6019501281B390B4A0B5B0B68EE73E094
:1024200080E090E00E9448228091E5029091E602CF
:10243000A091E702B091E802E81AF90A0A0B1B0B17
:10244000CA01B901A80197010E9429227093DF02F5
:102450006093DE02A092E102B092E202C092E30237
:10246000D092E4028091DA029091DB02A091DC022A
:10247000B091DD028093E5029093E602A093E7021B
:10248000B093E8028091E902823009F459C12091A9
:102490002A0330912B0380912E0390912F038217F2
:1024A00093070CF49EC0C901E0913003F091310311
:1024B0008E179F070CF4A1C0FC01209128033091D6
:1024C0002903E217F3070CF0A4C080912C0390912C
:1024D0002D03A901481B590B50932903409328034E
:1024E0004E175F0724F4F0932903E093280320910B
:1024F000340330913503809138039091390382176A
:1025000093070CF4F7C0C901E0913A03F0913B0343
:102510008E179F070CF4B4C0FC0120913203309158
:102520003303E217F3070CF0B7C0809136039091A4
:102530003703A901481B590B5093330340933203CF
:102540004E175F0724F4F0933303E093320311DA5C
:10255000892B09F48FC0109229031092280310923E
:102560003303109232031092EF021092EE02109297
:10257000F9021092F80280912803909129039A831E
:10258000898386E069E0AE014F5F5F4F0FDC809189
:102590003203909133039C838B8387E06AE0AE0122
:1025A0004D5F5F4F03DC25CD8093680481E080930D
:1025B000680581E090E056CD8091470390914803F3
:1025C000A0914903B0914A038C599F4FAF4FBF4F21
:1025D0008093470390934803A0934903B0934A0321
:1025E000A0CD90932B0380932A03E0913003F091C8
:1025F00031038E179F070CF05FCFF0932B03E0930E
:102600002A032091280330912903E217F3070CF4E1
:102610005CCF2E173F070CF06ACF80912C0390916E
:102620002D03AC01662757FD6095762FC901AA27B7
:1026300097FDA095BA2F480F591F6A1F7B1F403086
:1026400080E8580780E0680780E078070CF4F2C063
:102650008FEF9FE79E838D838D819E8190932903C9
:1026600080932803E817F9070CF43DCF40CF109270
:102670006805AFCC8091E9028F3F09F07CCF6BCF2A
:10268000F0933503E0933403209132033091330308
:10269000E217F3070CF449CF2E173F070CF057CF82
:1026A0008091360390913703AC01662757FD609502
:1026B000762FC901AA2797FDA095BA2F480F591F59
:1026C0006A1F7B1F403080E8580780E0680780E081
:1026D00078070CF4A0C08FEF9FE798878F838F81D6
:1026E00098859093330380933203E817F9070CF42D
:1026F0002ACF2DCF909335038093340305CFE091FB
:102700006904F0E0EE0FFF1FED5AFC4FA585B6857A
:10271000ED91FC9111970280F381E02DCD016CE6E3
:1027200074E00995E0916904F0E0EE0FFF1FED5AA7
:10273000FC4F2581368185859685F901099549CC1F
:102740008EEE92E00E948D0A88EF92E00E948D0A40
:102750008091EE029091EF02909311038093100309
:102760008091F8029091F90290931F0380931E03C9
:102770008091CF029091D00290930D0380930C032F
:102780008091DE029091DF0290931B0380931A03E5
:102790008CE093E00E94C2088AE193E00E94C208A4
:1027A000E0904403F09045030027F7FC0095102FBC
:1027B00060910E0370910F03882777FD8095982F05
:1027C000CB0177276627A80197010E946A22232F51
:1027D000342F452F552747FD5A9530932B032093CF
:1027E0002A0360911C0370911D03882777FD809553
:1027F000982FCB0177276627A80197010E946A22AC
:10280000232F342F452F552747FD5A9530933503F5
:10281000209334033CCE403080E858078FEF6807A0
:102820008FEF7807D4F480E090E89093330380939F
:1028300032038DCE403080E858078FEF68078FEF66
:10284000780774F480E090E890932903809328033C
:102850004ECE90E02C5F3F4F05CC58874F833FCF43
:102860005E834D83F9CEFF920F931F938C010296E6
:10287000CBD5F82EC8014C96C7D58F0D1F910F915F
:10288000FF900895DF92EF92FF920F931F938C01B8
:102890007B010296ACD3D82EE80EF11CC8014C96F1
:1028A000B701A5D38D0D1F910F91FF90EF90DF9091
:1028B0000895DF92EF92FF920F931F938C017B019B
:1028C00002961BD2D82EE80EF11CC8014C96B70117
:1028D00014D28D0D1F910F91FF90EF90DF9008950E
:1028E000CF93DF93FC0182819381A481B581EB01B9
:1028F0008883292F3A2F4B2F552729839D01442761
:1029000055272A838B2F9927AA27BB278B8386815C
:102910009781A085B1858C83292F3A2F4B2F55277E
:102920002D839D01442755272E838B2F9927AA2776
:10293000BB278F8382859385A485B5858887292FBA
:102940003A2F4B2F552729879D01442755272A8742
:102950008B2F9927AA27BB278B878CE0DF91CF91FC
:102960000895EF92FF920F931F93CF93DF937C0113
:10297000FB01218130E040E050E0542F432F322F03
:102980002227828190E0A0E0B0E0DC01992788272F
:10299000282B392B4A2B5B2B808190E0A0E0B0E004
:1029A000282B392B4A2B5B2B838190E0A0E0B0E0F1
:1029B000B82FAA2799278827282B392B4A2B5B2B3E
:1029C000C901A42FB52FE7018A839B83AC83BD8304
:1029D000258130E040E050E0542F432F322F222752
:1029E000868190E0A0E0B0E0DC0199278827282BC1
:1029F000392B4A2B5B2B848190E0A0E0B0E0282BA0
:102A0000392B4A2B5B2B878190E0A0E0B0E0B82FF8
:102A1000AA2799278827282B392B4A2B5B2BC901FA
:102A2000A42FB52F8E839F83A887B987218530E097
:102A300040E050E0542F432F322F2227828590E030
:102A4000A0E0B0E0DC0199278827282B392B4A2BFE
:102A50005B2B808590E0A0E0B0E0282B392B4A2B3F
:102A60005B2B838590E0A0E0B0E0B82FAA279927E0
:102A70008827282B392B4A2B5B2BC901DA01F70158
:102A800082879387A487B5878CE0DF91CF911F91D0
:102A90000F91FF90EF9008958CE00895CF93DF930E
:102AA000FC0182819381A481B581EB018883292F68
:102AB0003A2F4B2F552729839D01442755272A83D9
:102AC0008B2F9927AA27BB278B8386819781A08587
:102AD000B1858C83292F3A2F4B2F55272D839D01AC
:102AE000442755272E838B2F9927AA27BB278F830F
:102AF00088E0DF91CF910895EF92FF920F931F939B
:102B0000CF93DF937C01FB01218130E040E050E076
:102B1000542F432F322F2227828190E0A0E0B0E093
:102B2000DC0199278827282B392B4A2B5B2B8081A6
:102B300090E0A0E0B0E0282B392B4A2B5B2B83815F
:102B400090E0A0E0B0E0B82FAA2799278827282B8B
:102B5000392B4A2B5B2BC901A42FB52FE7018A83A0
:102B60009B83AC83BD83258130E040E050E0542F4F
:102B7000432F322F2227868190E0A0E0B0E0DC01D5
:102B800099278827282B392B4A2B5B2B848190E0AF
:102B9000A0E0B0E0282B392B4A2B5B2B878190E0FB
:102BA000A0E0B0E0B82FAA2799278827282B392B37
:102BB0004A2B5B2BC901DA01F70186839783A08733
:102BC000B18788E0DF91CF911F910F91FF90EF9037
:102BD000089588E008950F931F93DF93CF930F928A
:102BE000CDB7DEB7DC01EC911196FC91DF010D90C1
:102BF0000020E9F71197AE1BBF0BA98329813A8109
:102C00004B815C81FB0121933193419351938F015F
:102C1000FC0160817181C8014A2F50E00E94C723E6
:102C200089818C5F0F90CF91DF911F910F91089553
:102C30001F93CF93DF93EC01162F8A81882359F4D9
:102C4000862F90E001960E94C222888399831A837E
:102C5000E881F9811082DF91CF911F910895EF9261
:102C6000FF920F931F93CF93DF93EC01F62EE72E85
:102C7000E62FF72FDF010D900020E9F71197AE1B2B
:102C8000BF0B0A2F8A818823B9F0801708F4082F18
:102C900010E0888199816F2D7E2DA8010E94D0239C
:102CA000E881F981E00FF11F1082DF91CF911F9130
:102CB0000F91FF90EF900895CE016A2FB9DF8A81BE
:102CC000E4CFCDCF089584E09CE060E07CE00E94FA
:102CD000DF2390936A058093690585E593E060E0C2
:102CE00071E0EFDF109268058091690590916A05A7
:102CF000909354038093530308954F925F926F9281
:102D00007F929F92AF92BF92CF92DF92EF92FF920B
:102D10000F931F93DF93CF93CDB7DEB768970FB6AE
:102D2000F894DEBF0FBECDBF2C013B01DE01119632
:102D3000FC01329688E001900D928150E1F71981F3
:102D4000FA80EB80DC80CD80BE80AF809884F30178
:102D50001083212F3F2D4E2D5D2D6C2D7B2D8A2D27
:102D6000992D08E00E945701F3012183212F3F2D67
:102D70004E2D5D2D6C2D7B2D8A2D992D00E10E940D
:102D80005701F3012283212F3F2D4E2D5D2D6C2DF8
:102D90007B2D8A2D992D08E10E945701F301238391
:102DA000212F3F2D4E2D5D2D6C2D7B2D8A2D992DA4
:102DB00000E20E945701F3012483212F3F2D4E2D65
:102DC0005D2D6C2D7B2D8A2D992D08E20E945701D7
:102DD000F3012583212F3F2D4E2D5D2D6C2D7B2D55
:102DE0008A2D992D00E30E945701F3012683212F9C
:102DF0003F2D4E2D5D2D6C2D7B2D8A2D992D08E3B9
:102E00000E945701F3012783DE011996F2013A96D9
:102E100088E001900D928150E1F71985FA84EB84E6
:102E2000DC84CD84BE84AF849888F3011087212F81
:102E30003F2D4E2D5D2D6C2D7B2D8A2D992D08E07B
:102E40000E945701F3012187212F3F2D4E2D5D2D2B
:102E50006C2D7B2D8A2D992D00E10E945701F301E5
:102E60002287212F3F2D4E2D5D2D6C2D7B2D8A2D00
:102E7000992D08E10E945701F3012387212F3F2D4F
:102E80004E2D5D2D6C2D7B2D8A2D992D00E20E94FB
:102E90005701F3012487212F3F2D4E2D5D2D6C2DE1
:102EA0007B2D8A2D992D08E20E945701F301258779
:102EB000212F3F2D4E2D5D2D6C2D7B2D8A2D992D93
:102EC00000E30E945701F3012687212F3F2D4E2D4D
:102ED0005D2D6C2D7B2D8A2D992D08E30E945701C5
:102EE000F3012787DE015196F201729688E0019086
:102EF0000D928150E1F71989FA88EB88DC88CD883A
:102F0000BE88AF88988CF301108B212F3F2D4E2D5A
:102F10005D2D6C2D7B2D8A2D992D08E00E94570187
:102F2000F301218B212F3F2D4E2D5D2D6C2D7B2DFF
:102F30008A2D992D00E10E945701F301228B212F48
:102F40003F2D4E2D5D2D6C2D7B2D8A2D992D08E169
:102F50000E945701F301238B212F3F2D4E2D5D2D14
:102F60006C2D7B2D8A2D992D00E20E945701F301D3
:102F7000248B212F3F2D4E2D5D2D6C2D7B2D8A2DE9
:102F8000992D08E20E945701F301258B212F3F2D37
:102F90004E2D5D2D6C2D7B2D8A2D992D00E30E94E9
:102FA0005701F301268B212F3F2D4E2D5D2D6C2DCA
:102FB0007B2D8A2D992D08E30E945701F301278B61
:102FC00088E168960FB6F894DEBF0FBECDBFCF91F3
:102FD000DF911F910F91FF90EF90DF90CF90BF9006
:102FE000AF909F907F906F905F904F9008954F9219
:102FF0005F926F927F929F92AF92BF92CF92DF9239
:10300000EF92FF920F931F93DF93CF93CDB7DEB76D
:1030100068970FB6F894DEBF0FBECDBF2C013B0101
:10302000FB01218130E040E050E060E070E080E0B2
:1030300090E008E00E94D601122FF32EE42ED52E48
:10304000C62EB72EA82E992EF301228130E040E043
:1030500050E060E070E080E090E000E10E94D60186
:10306000122BF32AE42AD52AC62AB72AA82A992A93
:10307000F3018081182B238130E040E050E060E0D4
:1030800070E080E090E008E10E94D601122BF32A64
:10309000E42AD52AC62AB72AA82A992AF301248124
:1030A00030E040E050E060E070E080E090E000E27E
:1030B0000E94D601122BF32AE42AD52AC62AB72A5F
:1030C000A82A992AF301258130E040E050E060E031
:1030D00070E080E090E008E20E94D601122BF32A13
:1030E000E42AD52AC62AB72AA82A992AF3012681D2
:1030F00030E040E050E060E070E080E090E000E32D
:103100000E94D601122BF32AE42AD52AC62AB72A0E
:10311000A82A992AF301278130E040E050E060E0DE
:1031200070E080E090E008E30E94D601122BF32AC1
:10313000E42AD52AC62AB72AA82A992A1983FA8204
:10314000EB82DC82CD82BE82AF829886D20112965B
:10315000FE01319688E001900D928150E1F7F30174
:10316000218530E040E050E060E070E080E090E0F9
:1031700008E00E94D601122FF32EE42ED52EC62E83
:10318000B72EA82E992EF301228530E040E050E0C2
:1031900060E070E080E090E000E10E94D601122B38
:1031A000F32AE42AD52AC62AB72AA82A992AF3019B
:1031B0008085182B238530E040E050E060E070E02F
:1031C00080E090E008E10E94D601122BF32AE42A65
:1031D000D52AC62AB72AA82A992AF301248530E0DD
:1031E00040E050E060E070E080E090E000E20E94AB
:1031F000D601122BF32AE42AD52AC62AB72AA82AEE
:10320000992AF301258530E040E050E060E070E06D
:1032100080E090E008E20E94D601122BF32AE42A13
:10322000D52AC62AB72AA82A992AF301268530E08A
:1032300040E050E060E070E080E090E000E30E9459
:10324000D601122BF32AE42AD52AC62AB72AA82A9D
:10325000992AF301278530E040E050E060E070E01B
:1032600080E090E008E30E94D601122BF32AE42AC2
:10327000D52AC62AB72AA82A992A1987FA86EB8658
:10328000DC86CD86BE86AF86988AD2011A96FE016C
:10329000399688E001900D928150E1F7F301218980
:1032A00030E040E050E060E070E080E090E008E076
:1032B0000E94D601122FF32EE42ED52EC62EB72E45
:1032C000A82E992EF301228930E040E050E060E022
:1032D00070E080E090E000E10E94D601122BF32A1A
:1032E000E42AD52AC62AB72AA82A992AF30180896E
:1032F000182B238930E040E050E060E070E080E08F
:1033000090E008E10E94D601122BF32AE42AD52A84
:10331000C62AB72AA82A992AF301248930E040E076
:1033200050E060E070E080E090E000E20E94D601B2
:10333000122BF32AE42AD52AC62AB72AA82A992AC0
:10334000F301258930E040E050E060E070E080E08B
:1033500090E008E20E94D601122BF32AE42AD52A33
:10336000C62AB72AA82A992AF301268930E040E024
:1033700050E060E070E080E090E000E30E94D60161
:10338000122BF32AE42AD52AC62AB72AA82A992A70
:10339000F301278930E040E050E060E070E080E039
:1033A00090E008E30E94D601122BF32AE42AD52AE2
:1033B000C62AB72AA82A992A198BFA8AEB8ADC8AA4
:1033C000CD8ABE8AAF8A988ED2015296FE0171963E
:1033D00088E001900D928150E1F788E168960FB680
:1033E000F894DEBF0FBECDBFCF91DF911F910F913B
:1033F000FF90EF90DF90CF90BF90AF909F907F9025
:103400006F905F904F90089588E10895CF93DF9378
:10341000FC0182819381A481B581EB018883292FEE
:103420003A2F4B2F552729839D01442755272A835F
:103430008B2F9927AA27BB278B8386819781A0850D
:10344000B1858C83292F3A2F4B2F55272D839D0132
:10345000442755272E838B2F9927AA27BB278F8395
:1034600082859385A485B5858887292F3A2F4B2F90
:10347000552729879D01442755272A878B2F992770
:10348000AA27BB278B8786859785A089B1898C87DA
:10349000292F3A2F4B2F55272D879D01442755273C
:1034A0002E878B2F9927AA27BB278F8782899389FD
:1034B000A489B589888B292F3A2F4B2F5527298B23
:1034C0009D01442755272A8B8B2F9927AA27BB2795
:1034D0008B8B86899789A08DB18D8C8B292F3A2F64
:1034E0004B2F55272D8B9D01442755272E8B8B2F36
:1034F0009927AA27BB278F8B828D938DA48DB58D9D
:10350000888F292F3A2F4B2F5527298F9D0144272C
:103510005527FB01228F8B2F9927AA27BB27838F43
:103520008CE1DF91CF910895EF92FF920F931F935B
:10353000CF93DF937C01FB01218130E040E050E03C
:10354000542F432F322F2227828190E0A0E0B0E059
:10355000DC0199278827282B392B4A2B5B2B80816C
:1035600090E0A0E0B0E0282B392B4A2B5B2B838125
:1035700090E0A0E0B0E0B82FAA2799278827282B51
:10358000392B4A2B5B2BC901A42FB52FE7018A8366
:103590009B83AC83BD83258130E040E050E0542F15
:1035A000432F322F2227868190E0A0E0B0E0DC019B
:1035B00099278827282B392B4A2B5B2B848190E075
:1035C000A0E0B0E0282B392B4A2B5B2B878190E0C1
:1035D000A0E0B0E0B82FAA2799278827282B392BFD
:1035E0004A2B5B2BC901A42FB52F8E839F83A887FD
:1035F000B987218530E040E050E0542F432F322F2F
:103600002227828590E0A0E0B0E0DC01992788279E
:10361000282B392B4A2B5B2B808590E0A0E0B0E073
:10362000282B392B4A2B5B2B838590E0A0E0B0E060
:10363000B82FAA2799278827282B392B4A2B5B2BB1
:10364000C901A42FB52F8A879B87AC87BD872585A5
:1036500030E040E050E0542F432F322F2227868560
:1036600090E0A0E0B0E0DC0199278827282B392BD7
:103670004A2B5B2B848590E0A0E0B0E0282B392B0F
:103680004A2B5B2B878590E0A0E0B0E0B82FAA27FB
:1036900099278827282B392B4A2B5B2BC901A42F6C
:1036A000B52F8E879F87A88BB98B218930E040E0AA
:1036B00050E0542F432F322F2227828990E0A0E040
:1036C000B0E0DC0199278827282B392B4A2B5B2B6C
:1036D000808990E0A0E0B0E0282B392B4A2B5B2BAF
:1036E000838990E0A0E0B0E0B82FAA279927882727
:1036F000282B392B4A2B5B2BC901A42FB52F8A8B82
:103700009B8BAC8BBD8B258930E040E050E0542F83
:10371000432F322F2227868990E0A0E0B0E0DC0121
:1037200099278827282B392B4A2B5B2B848990E0FB
:10373000A0E0B0E0282B392B4A2B5B2B878990E047
:10374000A0E0B0E0B82FAA2799278827282B392B8B
:103750004A2B5B2BC901A42FB52F8E8B9F8BA88F73
:10376000B98F218D30E040E050E0542F432F322FAD
:103770002227828D90E0A0E0B0E0DC019927882725
:10378000282B392B4A2B5B2B808D90E0A0E0B0E0FA
:10379000282B392B4A2B5B2B838D90E0A0E0B0E0E7
:1037A000B82FAA2799278827282B392B4A2B5B2B40
:1037B000C901DA01F701828F938FA48FB58F8CE155
:1037C000DF91CF911F910F91FF90EF9008958CE1C1
:1037D0000895FC0177816681862F82958F70272F4F
:1037E00030E02F77307022953295307F3227207F5E
:1037F0003227280F311D2115310579F1205833402A
:10380000C90196958795B82FA22FA795AA27A795A6
:10381000707825816F70660F660F660F822F829514
:1038200086958770680F9481220F220F220F392FFF
:10383000330F330F330F8381829586958770432F23
:10384000480F929596959770522F590FE62FEA0FD1
:10385000FB2FF70FBA01CF010895B0E0A0E0D8CF59
:103860002ED30E94150F0E94A10FFDCF1F920F9221
:103870000FB60F9211242F933F934F938F939F93E3
:10388000EF93FF934091C600E091EB05F091EC05BA
:1038900031969F012F77307031978091ED0590918F
:1038A000EE052817390739F0E559FA4F4083309370
:1038B000EC052093EB05FF91EF919F918F914F9134
:1038C0003F912F910F900FBE0F901F9018958F92E0
:1038D000AF92CF92DF92EF92FF920F931F93DF93FD
:1038E000CF93CDB7DEB7FC018FE492E09183808364
:1038F00073836283558344833783268311870087CC
:10390000F386E286D586C486A68687868D85808BDB
:103910008E85818B8F85828BCF91DF911F910F9147
:10392000FF90EF90DF90CF90AF908F900895CF935E
:10393000DF93EC019A01AB01203081EE380780E083
:10394000480780E0580709F449C0E885F98581E017
:1039500090E00A8802C0880F991F0A94E2F78083DA
:1039600060E079E08DE390E0B5D5215030404040F3
:103970005040CA01B90122E030E040E050E0AAD551
:10398000EC81FD813083EE81FF812083EA85FB8518
:10399000208141E050E0CA010E8402C0880F991FC7
:1039A0000A94E2F7282B2083EA85FB852081CA014F
:1039B0000F8402C0880F991F0A94E2F7282B2083F6
:1039C000EA85FB858081088802C0440F551F0A9450
:1039D000E2F7842B8083DF91CF910895E885F98504
:1039E000108230E020E1CCCFDC011296ED91FC9109
:1039F0001397E058FF4F2191319180819181281BCD
:103A0000390B2F773070C9010895DC011296ED91C2
:103A1000FC911397EE57FF4F208131819291829153
:103A2000E058F0408217930739F0E20FF31F8081CE
:103A3000282F30E0C90108952FEF3FEFC901089505
:103A4000DC011296ED91FC911397DF01AE57BF4F49
:103A50002D913C911197E058FF4F80819181E05862
:103A6000F0408217930769F0E20FF31F80812F5F08
:103A70003F4F2F7730702D933C93282F30E0C901B2
:103A800008952FEF3FEFC9010895DC011296ED91E3
:103A9000FC911397EE57FF4F80819181929382930F
:103AA0000895DC011896ED91FC91199751962C918F
:103AB0005197808190E0022E02C0959587950A94D7
:103AC000E2F780FFF6CF1C96ED91FC911D97608385
:103AD00008958F92AF92CF92DF92EF92FF920F9361
:103AE0001F9300D00F92EDB7FEB7319687E0ADB7C8
:103AF000BEB711968C9385E0818381E082838FEE3F
:103B000095E06BE675E045EC50E024EC30E000EC2D
:103B100010E0B1ECEB2EF12CA6ECCA2ED12CF4E087
:103B2000AF2EE3E08E2ED3DE0F900F900F901F91FB
:103B30000F91FF90EF90DF90CF90AF908F9008950E
:103B40000F931F93CF93DF938C01EB016881662362
:103B500061F02196D801ED91FC910190F081E02D6A
:103B6000C801099568816623A1F7DF91CF911F9164
:103B70000F910895EF92FF920F931F93CF93DF93CE
:103B80008C017B014115510599F0EA01219701C093
:103B9000EC01D7016D917D01D801ED91FC9101906F
:103BA000F081E02DC8010995CE010197CD2B81F759
:103BB000DF91CF911F910F91FF90EF9008951F9289
:103BC0000F920FB60F9211242F933F934F935F9351
:103BD0006F937F938F939F93AF93BF93EF93FF93D5
:103BE0008091020690910306892B29F0E09102064C
:103BF000F09103060995FF91EF91BF91AF919F91CD
:103C00008F917F916F915F914F913F912F910F9085
:103C10000FBE0F901F9018951F920F920FB60F9224
:103C200011242F933F934F935F936F937F938F93C1
:103C30009F93AF93BF93EF93FF938091040690916E
:103C40000506892B29F0E0910406F09105060995F7
:103C5000FF91EF91BF91AF919F918F917F916F9164
:103C60005F914F913F912F910F900FBE0F901F903A
:103C70001895982F8E3008F09E50977080911802FA
:103C80008295880F880F807C892B80937C0080919F
:103C90007A00806480937A0080917A0086FDFCCF60
:103CA0002091780040917900942F80E030E0282B1B
:103CB000392BC90108951F93CF93DF93182FEB0180
:103CC00061E038D12097D1F0CF3FD10581F0E12FCD
:103CD000F0E0E05CFD4F8491833039F18430A8F44A
:103CE000813069F18230C1F1C038D1053CF0812FBB
:103CF00061E075D1DF91CF911F910895812F60E030
:103D00006ED1DF91CF911F9108958630E9F0873011
:103D100041F1843049F78091800080628093800077
:103D2000D0938B00C0938A00ECCF80918000806894
:103D300080938000D0938900C0938800E2CF84B53F
:103D4000806884BDC7BDDDCF8091B000806880935E
:103D5000B000C093B300D5CF84B5806284BDC8BD28
:103D6000D0CF8091B00080628093B000C093B40047
:103D7000C8CF1F920F920FB60F9211242F933F932B
:103D80008F939F93AF93BF9380910A0690910B06F8
:103D9000A0910C06B0910D0630910E060196A11D62
:103DA000B11D232F2D5F2D3720F02D570196A11D1A
:103DB000B11D20930E0680930A0690930B06A093E4
:103DC0000C06B0930D068091060690910706A0910F
:103DD0000806B09109060196A11DB11D8093060643
:103DE00090930706A0930806B0930906BF91AF9180
:103DF0009F918F913F912F910F900FBE0F901F9029
:103E000018958FB7F89420910A0630910B064091CF
:103E10000C0650910D068FBFB901CA0108959FB7D6
:103E2000F8942091060630910706409108065091BB
:103E3000090686B5A89B06C08F3F21F02F5F3F4F34
:103E40004F4F5F4F9FBF542F432F322F2227280FF2
:103E5000311D411D511D220F331F441F551F220FBD
:103E6000331F441F551FB901CA010895EF92FF92F5
:103E70000F931F93CF93DF937B018C01D0DFE1146D
:103E8000F10401051105A1F0EB01C9DF6C1B7D0BED
:103E9000685E7340D0F30894E108F1080109110944
:103EA000E114F1040105110519F0C851DC4FEDCF03
:103EB000DF91CF911F910F91FF90EF90089578942B
:103EC00084B5826084BD84B5816084BD85B582601F
:103ED00085BD85B5816085BDEEE6F0E080818160BD
:103EE0008083E1E8F0E010828081826080838081BD
:103EF00081608083E0E8F0E0808181608083E1EB95
:103F0000F0E0808184608083E0EBF0E0808181607C
:103F10008083EAE7F0E08081846080838081826032
:103F2000808380818160808380818068808310921B
:103F3000C1000895482F50E0CA01845D9D4FFC01E7
:103F40002491485E5D4FFA018491882381F0E82F27
:103F5000F0E0EE0FFF1FE650FE4FA591B4916623EF
:103F600039F09FB7F8948C91822B8C939FBF089562
:103F70009FB7F8948C91209582238C939FBF0895CE
:103F8000833039F1843060F08630C9F0873069F0D1
:103F9000843051F4809180008F7D8093800008955B
:103FA000813099F0823039F008958091B0008F7D92
:103FB0008093B000089584B58F7D84BD089580916D
:103FC000B0008F778093B000089584B58F7784BD5B
:103FD0000895809180008F77809380000895FF92EC
:103FE0000F931F93F62E482F50E0CA01805C9D4F1F
:103FF000FC012491CA01845D9D4FFC010491485E3F
:104000005D4FFA011491112391F02223F9F4E12F6D
:10401000F0E0EE0FFF1FEC5FFD4FA591B491FF2084
:1040200051F09FB7F8948C91802B8C939FBF1F9178
:104030000F91FF9008959FB7F8948C91009580237D
:104040008C939FBF1F910F91FF900895822F98DF4F
:10405000DECF0F931F93482F50E0CA01805C9D4F25
:10406000FC012491CA01845D9D4FFC010491485ECE
:104070005D4FFA0114911123D1F02223F1F4812F25
:1040800090E0880F991F825F9D4FFC01A591B4912C
:104090008C9120E030E0802321F4C9011F910F9121
:1040A000089521E030E0C9011F910F91089520E0AB
:1040B00030E0C9011F910F910895822F61DFDFCF9A
:1040C00081E08093340660931106109232061092BC
:1040D00033060895F5CF08950895DF93CF930F9297
:1040E000CDB7DEB76983809134068823C1F0809113
:1040F0003306803220F00F90CF91DF9108958091A8
:104100003206E82FF0E0EE5EF94F60838F5F809318
:104110003206809333060F90CF91DF910895CE0140
:10412000019661E076D00F90CF91DF910895D5CFC1
:1041300008958091110662E176E04091330621E016
:1041400023D010923206109233061092340608954E
:1041500010920F061092100610923206109233063B
:1041600000C010923606449A459AE9EBF0E080814F
:104170008E7F808380818D7F808388E48093B800E8
:1041800085E48093BC000895982F4132D0F580914A
:1041900036068823E1F782E0809336068FEF80931E
:1041A000A10610925C0640935D06442369F030E05E
:1041B000E32FF0E0DB01AE0FBF1F8C91E45CF94F01
:1041C00080833F5F3417A0F3892F90E0880F991FF9
:1041D0008093370685EE8093BC00222321F08091E6
:1041E00036068230E1F38091A1068F3F61F0809125
:1041F000A106803251F08091A106803341F084E025
:10420000089581E0089580E0089582E0089583E0B4
:104210000895AC016132C8F480913606843011F003
:1042200082E0089560937F06662369F020E0E22F24
:10423000F0E0DA01AE0FBF1F8C91E25AF94F808394
:104240002F5F2617A0F380E0089581E0089588236A
:1042500021F485E88093BC00089585EC8093BC0030
:10426000089585ED8093BC008091BC0084FDFCCF57
:1042700010923606089585EC8093BC0010923606A5
:1042800008951F920F920FB60F9211242F933F9310
:104290004F935F936F937F938F939F93AF93BF934E
:1042A000EF93FF938091B90090E0A0E0B0E0887FA9
:1042B0009070A070B070FC01893C9105E0F4EC5C5A
:1042C000FF4FEE0FFF1F0590F491E02D09948091B0
:1042D0005C069091BB00E82FF0E0E45CF94F90831E
:1042E0008F5F80935C0690915C0680915D069817C5
:1042F000D0F581E0ACDFFF91EF91BF91AF919F913D
:104300008F917F916F915F914F913F912F910F907E
:104310000FBE0F901F90189584E080933606109280
:104320007E0610927F06E0913806F09139060995D5
:1043300080917F06882329F481E080937F06109284
:104340005E0690917E06E92FF0E0E25AF94F8081F7
:104350008093BB009F5F90937E0690917E06809134
:104360007F06981730F280E072DFC5CF1092A10669
:1043700078DFC1CF81E06BDF10923606BCCF809131
:104380005C069091BB00E82FF0E0E45CF94F90836D
:104390008F5F80935C06ECCF83E0809336061092AB
:1043A000A006A7CF8091A0068032E8F68091A006F3
:1043B0009091BB00E82FF0E0E058F94F90838F5FB9
:1043C0008093A00681E043DF96CF809137068093EB
:1043D000BB0081E03CDF8FCF90915C0680915D0651
:1043E000981730F680915C06E82FF0E0E45CF94F16
:1043F00090819093BB008F5F80935C0681E027DF04
:104400007ACF80E28093A1062CDF75CF8091A00641
:10441000803230F4E091A006F0E0E058F94F1082CD
:1044200020DF6091A006E0913A06F0913B0680E81B
:1044300096E070E009951092A0061DDF5CCF80E346
:104440008093A1060EDF57CF88E38093A10613DF88
:1044500052CF629FD001739FF001829FE00DF11D4A
:10446000649FE00DF11D929FF00D839FF00D749FEE
:10447000F00D659FF00D9927729FB00DE11DF91F9A
:10448000639FB00DE11DF91FBD01CF0111240895F7
:10449000A1E21A2EAA1BBB1BFD010DC0AA1FBB1F48
:1044A000EE1FFF1FA217B307E407F50720F0A21BBA
:1044B000B30BE40BF50B661F771F881F991F1A9427
:1044C00069F760957095809590959B01AC01BD0151
:1044D000CF01089597FB092E05260ED057FD04D075
:1044E000D7DF0AD0001C38F45095409530952195BF
:1044F0003F4F4F4F5F4F0895F6F790958095709519
:1045000061957F4F8F4F9F4F08952F923F924F920B
:104510005F926F927F928F929F92AF92BF92CF9253
:10452000DF92EF92FF920F931F93CF93DF93CDB75C
:10453000DEB7CA1BDB0B0FB6F894DEBF0FBECDBFD4
:1045400009942A88398848885F846E847D848C84A5
:104550009B84AA84B984C884DF80EE80FD800C81AE
:104560001B81AA81B981CE0FD11D0FB6F894DEBF91
:104570000FBECDBFED010895EE0FFF1F0590F49122
:10458000E02D0994CF93DF93BC018230910510F4A4
:1045900062E070E0A091A406B091A506ED01E0E014
:1045A000F0E040E050E021C08881998186179707AC
:1045B00069F48A819B81309719F09383828304C0C8
:1045C0009093A5068093A406FE0134C0681779076E
:1045D00038F44115510519F08417950708F4AC011A
:1045E000FE018A819B819C01E9012097E9F6411532
:1045F0005105A9F1CA01861B970B049708F4BA016B
:10460000E0E0F0E02AC08D919C9111978417950706
:10461000F9F46417750781F412968D919C911397A4
:10462000309719F09383828304C09093A5068093FA
:10463000A406FD0132964FC0CA01861B970BFD01EF
:10464000E80FF91F6193719302978D939C9343C078
:10465000FD01828193819C01D9011097A1F680917F
:10466000A2069091A306892B41F4809114029091A7
:1046700015029093A3068093A206409116025091D2
:1046800017024115510541F44DB75EB780911202F2
:1046900090911302481B590B2091A2063091A3065A
:1046A00024173507B0F4CA01821B930B86179707AE
:1046B00080F0AB014E5F5F4F8417950750F0420FBB
:1046C000531F5093A3064093A206F901619371937F
:1046D00002C0E0E0F0E0CF01DF91CF910895CF93E9
:1046E000DF93009709F450C0EC0122971B821A82D5
:1046F000A091A406B091A506109709F140E050E002
:10470000AC17BD0708F1BB83AA83FE01219131914B
:10471000E20FF31FAE17BF0779F48D919C911197AB
:10472000280F391F2E5F3F4F3983288312968D91B2
:104730009C9113979B838A834115510571F4D09303
:10474000A506C093A40620C012968D919C91139744
:10475000AD01009711F0DC01D3CFFA01D383C283FE
:1047600021913191E20FF31FCE17DF0769F48881A1
:104770009981280F391F2E5F3F4FFA013183208323
:104780008A819B8193838283DF91CF910895FB017E
:10479000DC0102C001900D9241505040D8F70895BD
:1047A000FB01DC014150504048F001900D92002087
:1047B000C9F701C01D9241505040E0F708950F9392
:1047C0001F93CF93DF938C01EB01009731F46115B8
:1047D000710519F420E030E037C081E090E06EE030
:1047E00070E064D0FC019C01009771F180E8838344
:1047F000209771F0D387C28781E883838091A606D2
:104800009091A706892B21F4F093A706E093A606C2
:1048100001151105C9F011870087838182608383A8
:104820008091A8069091A906892B71F4F093A906AE
:10483000E093A8068091AA069091AB06892B21F4FB
:10484000F093AB06E093AA06C901DF91CF911F91C7
:104850000F9108950F931F93CF93DF938C01EB017A
:104860008B8181FF1BC082FF0DC02E813F818C8117
:104870009D812817390764F4E881F9810193F98350
:10488000E88306C0E885F985802F0995892B31F4E6
:104890008E819F8101969F838E8302C00FEF1FEF51
:1048A000C801DF91CF911F910F9108950F931F932E
:1048B000CF93DF93689F8001699F100D789F100D43
:1048C0001124C8015FDEEC01009721F060E070E088
:1048D000A80106D0CE01DF91CF911F910F910895CD
:1048E000DC0101C06D9341505040E0F70895F89409
:0248F000FFCFF8
:1048F2004368616D656C656F6E000000000000002A
:10490200000000010202030303030404040404047C
:104912000404050505050505050505050505050547
:104922000505060606060606060606060606060627
:104932000606060606060606060606060606060615
:1049420006060707070707070707070707070707F7
:1049520007070707070707070707070707070707E5
:1049620007070707070707070707070707070707D5
:1049720007070707070707070707070707070707C5
:1049820007070808080808080808080808080808A7
:104992000808080808080808080808080808080895
:1049A2000808080808080808080808080808080885
:1049B2000808080808080808080808080808080875
:1049C2000808080808080808080808080808080865
:1049D2000808080808080808080808080808080855
:1049E2000808080808080808080808080808080845
:1049F2000808080808080808080808080808080835
:104A020008082000AC060000010000000059144212
:104A1200143314000000007014B1144C150000008F
:104A2200004E157C15E915000000007D16F71704ED
:104A32001A00000000061A941AE71B000000005139
:0E4A42001DA01DBA1DF41C201D051D451D00E4
:00000001FF
